:020000040800F2
:2000000070100020255A00084559000847590008495900084B5900084D5900080000000067
:200020000000000000000000000000004F59000851590008000000005359000855590008F4
:20004000495A00084D5A0008515A0008555A0008595A00085D5A000863590008615A0008DB
:20006000655A0008695A00086D5A0008715A0008755A0008795A00087D5A0008815A0008D8
:20008000855A0008895A00088D5A000800000000000000000000000000000000915A0008AC
:2000A000955A0008995A00089D5A0008A15A0008A55A0008A95A0008AD5A0008B15A000818
:2000C000B55A0008B95A0008BD5A0008C15A0008C55A0008C95A0008CD5A0008000000002B
:2000E000D15A0008D55A0008D95A000800000000000000000000000000000000DD5A00081C
:2001000000000000E15A0008E55A0008E95A0008000000000000000000000000000000000A
:20012000ED5A0008F15A0008F55A0008F95A0008FD5A00080000000000000000000000000C
:2001400000000000000000000000000069590008015B0008055B0008095B00080D5B00082D
:20016000115B0008155B000800000000000000000000000000000000000000000000000093
:2001800000000000195B000800000000000000001D5B0008215B000800F5E070026891425D
:2001A00003D343681A44914202D380680028F5D170471849086880B94FF4805048604FF423
:2001C00080324FF0FF30C86008610420124B8A604861C3F8BC01114808600120704701F157
:2001E000080313F0070F0EBF0023C3F1080303F007031944D21A8161C26042F001034B6001
:20020000091D4FF0280C41F802C0024A1369C361704700004C0C0020740900206859883C0D
:200220002DE9F84F84B00646AFF30080F52E1E4D80F00F820B2E31BF10260B36F608F6009C
:200240002868F408E04010F0030F4AD0C04300F00100041905F1280000EBC408E700D8F829
:2002600008607068C008C000B84218BF01F0E2F9D6F80890464508BF01F0DCF94E4508BF41
:2002800001F0D8F97068C008C000B84218BF01F0D1F9C8450AD12868012101FA04F420EA19
:2002A00004042C6010E000BF740900202869814508D3D9F80C10B14204D1C8F80890C9F85E
:2002C0000C8001E001F0B6F947F00300311D7060301DCA5942F00102C25106F1080800F00A
:2002E00010BFA968B14280F09F83002800F0A2804FF0010808FA04F1490000FA04F448425B
:2003000001430C4060420440641E200B00F01000C440610901F00801CC40A20802F00402A4
:20032000D440630803F002030818DC401018C4F3400718183818FC40241805F1280000EBE3
:20034000C40AE700DAF80890D9F80400C008C000B84218BF01F06EF9D9F808B0D14508BF92
:1803600001F068F9D94508BF01F064F9D9F80400C008C000B84218BFD2
:00000001FF
