:020000040800F2
:100000000020002015020008CB010008CB010008E9
:10001000CB010008CB010008CB0100080000000064
:10002000000000000000000000000000CB010008FC
:10003000CB01000800000000CB010008CB01000844
:1000400000205448016851F4803101605248016831
:1000500051F0080101605148016851F08071016060
:10006000016851F080610160016851F080510160C8
:10007000016851F08041016006E0521C8242FCD3CD
:10008000086830F400400860002100E0491C444842
:100090008142FBD343490A6852F480520A6000222D
:1000A00000E0521C8242FCD30A6852F400520A60FB
:1000B000002200E0521C8242FCD30A6852F48042C3
:1000C0000A60002200E0521C8242FCD30A6852F40B
:1000D00000420A60002200E0521C8242FCD30A68FF
:1000E00032F400420A60002200E0521C8242FCD33B
:1000F0000A6832F480420A60002200E0521C824208
:10010000FCD30A6832F400520A60002200E0521C5C
:100110008242FCD30A6832F480520A60002200E076
:10012000521C8242FCD30A6852F480520A600022B8
:1001300000E0521C8242FCD30A6852F400520A606A
:10014000002200E0521C8242FCD30A6852F4804232
:100150000A60002200E0521C8242FCD30A6852F47A
:1001600000420A600A6832F480520A60002200E00D
:10017000521C8242FCD30A6832F400520A60002208
:1001800000E0521C8242FCD30A6832F480420A60CA
:10019000002273E70038024030380240000C024071
:1001A00040420F00140C02404EF68851CEF200017E
:1001B000086840F470000860BFF34F8FBFF36F8F83
:1001C0004FF00170E1EE100A7047FEE700F00DF805
:1001D000002801D0AFF30080AFF300800020AFF320
:1001E0000080FFF72DFF00F002F80120704700F0BB
:1001F00001B800000746384600F002F8FBE70000AF
:1002000080B5AFF30080024A11001820ABBEFBE7B7
:10021000260002000548014603B4684680F30988B9
:10022000AFF30080FFF7C0FFFFF7D0FFA5EDF5FEAD
:0400000508000215D8
:00000001FF
