:020000040800F2
:200000000000022075090008FD08000803090008090900080F0900081509000800000000B7
:200020000000000000000000000000001B09000829090008000000003709000845090008BC
:20004000C5090008C5090008C5090008C5090008C5090008C5090008C5090008C5090008F0
:20006000C5090008C5090008C5090008C5090008C5090008C5090008C5090008C5090008D0
:20008000C5090008C5090008C509000800000000000000000000000000000000C509000808
:2000A000C5090008C5090008C5090008C5090008C5090008C5090008C5090008C509000890
:2000C000C5090008C5090008C5090008C5090008C5090008C5090008C50900080000000046
:2000E000C5090008C5090008C509000800000000000000000000000000000000C5090008A8
:2001000000000000C5090008C5090008C5090008000000000000000000000000000000005D
:20012000C5090008C5090008C5090008C5090008C509000800000000000000000000000091
:20014000000000000000000000000000C5090008C5090008C5090008C5090008C509000871
:20016000C5090008C5090008000000000000000000000000000000000000000000000000D3
:2001800000000000C50900080000000000000000C5090008C509000810B5054C237833B940
:2001A000044B13B10448AFF300800123237010BD0C00002000000000D418000808B5034B0F
:2001C0001BB103490348AFF3008008BD0000000010000020D418000853B94AB9002908BFB2
:2001E00000281CBF4FF0FF314FF0FF3000F06EB9ADF1080C6DE904CE00F006F8DDF804E087
:20020000DDE9022304B070472DE9F047089D04468C46002B40F083808A42174647D9B2FA27
:2002200082F242B1C2F1200024FA00F09140974040EA010C94404FEA1748230CBCFBF8F657
:200240001FFA87FE08FB16C143EA014306FB0EF1994209D9FB1806F1FF3080F019819942DA
:2002600040F21681023E3B445B1AA4B2B3FBF8F008FB103344EA034400FB0EFEA64509D906
:200280003C1900F1FF3380F00581A64540F2028102383C4440EA0640A4EB0E0400261DB191
:2002A000D4400023C5E900433146BDE8F08702B9FFDEB2FA82F2002A50D1CB1B4FEA174EFC
:2002C0001FFA87F80126B3FBFEFC210C0EFB1C3341EA034108FB0CF38B4207D979180CF186
:2002E000FF3002D28B4200F2E9808446C91AA3B2B1FBFEF00EFB101143EA014408FB00F8A0
:20030000A04507D93C1900F1FF3302D2A04500F2D9801846A4EB080440EA0C40BFE78B42BA
:2003200009D9002D00F0B1800026C5E9000130463146BDE8F087B3FA83F6002E4AD18B4273
:2003400002D3824200F2B880841A61EB030101208C46002DA8D0C5E9004CA5E7C2F12003F8
:2003600020FA03F6974001FA02F04FEA174ED9403043030CB1FBFEF61FFA87F80EFB161105
:2003800043EA014306FB08F1994204FA02F409D9FB1806F1FF3C80F08D80994240F28A8068
:2003A000023E3B445B1A81B2B3FBFEF00EFB103341EA034100FB08F38B4207D9791800F15A
:2003C000FF3C73D28B4271D902383944CB1A40EA064678E7C6F1200C03FA06F422FA0CF320
:2003E0001C4320FA0CF701FA06F34FEA144E21FA0CF11F433B0CB1FBFEF91FFA84F80EFBF0
:20040000191143EA014109FB08FA8A4502FA06F200FA06F308D9611809F1FF3048D28A451B
:2004200046D9A9F102092144A1EB0A01BFB2B1FBFEF00EFB101147EA014700FB08F8B84556
:2004400007D9E71900F1FF312ED2B8452CD90238274440EA0940A7EB0807A0FB02894F4526
:20046000C64649461AD317D05DB1B3EB0E0267EB010707FA0CFCF2404CEA0202F740C5E99D
:20048000002700263146BDE8F0872E4628460BE70646E9E61846FDE64345E5D2B8EB020E5A
:2004A00069EB04010138DFE70846D2E760468DE78146B9E7664675E730464AE7ACF1020C02
:2004C000394413E702383C4424E700BF704700BF80B500AF00F078FA00F01AF800F082F8F9
:2004E00001224FF40051094800F06EFD4FF47A7000F0DCFA00224FF40051044800F064FD53
:200500004FF47A7000F0D2FAEAE700BF000C024080B594B000AF07F1200330220021184600
:2005200001F0D0F907F10C0300221A605A609A60DA601A610023BB60284B1B6C274A43F019
:2005400080531364254B1B6C03F08053BB60BB6800237B60224B1B68214A43F440431360D0
:200560001F4B1B6803F440437B607B6802233B620123FB6210233B630223BB630023FB637E
:2005800008233B64C0237B640423BB640823FB6407F12003184600F031FD0346002B01D023
:2005A00000F07EF90F23FB6002233B6100237B614FF4A053BB614FF48053FB6107F10C03BC
:2005C0000321184600F092FF0346002B01D000F067F900BF5037BD4680BD00BF00380240C4
:2005E0000070004080B58CB000AF07F11C0300221A605A609A60DA601A610023BB61A24BE3
:200600001B6BA14A43F0100313639F4B1B6B03F01003BB61BB6900237B619B4B1B6B9A4AA8
:2006200043F004031363984B1B6B03F004037B617B6900233B61944B1B6B934A43F0800330
:200640001363914B1B6B03F080033B613B690023FB608D4B1B6B8C4A43F0010313638A4BD8
:200660001B6B03F00103FB60FB680023BB60864B1B6B854A43F002031363834B1B6B03F0E6
:200680000203BB60BB6800237B607F4B1B6B7E4A43F0080313637C4B1B6B03F008037B6027
:2006A0007B6800220821794800F08EFC01220121774800F089FC00224FF21001754800F037
:2006C00083FC0423FB6100233B6200237B6207F11C0319466D4800F0F3FA0823FB610123A5
:2006E0003B6200237B620023BB6207F11C031946664800F0E5FA3223FB614FF490133B62F6
:2007000000237B6207F11C031946604800F0D8FA0123FB6101233B6200237B620023BB6278
:2007200007F11C0319465A4800F0CAFA0823FB6102233B6200237B620023BB620523FB62DF
:2007400007F11C031946524800F0BAFA0123FB614FF490133B6200237B6207F11C0319466C
:200760004D4800F0ADFA1023FB6102233B6200237B620023BB620623FB6207F11C031946C0
:20078000454800F09DFAE023FB6102233B6200237B620323BB620523FB6207F11C031946E6
:2007A0003D4800F08DFA4FF4A053FB6102233B6200237B620023BB620523FB6207F11C030D
:2007C0001946364800F07CFA4FF21003FB6101233B6200237B620023BB6207F11C031946AF
:2007E0002C4800F06DFA4FF4A453FB6102233B6200237B620023BB620623FB6207F11C03F9
:200800001946234800F05CFA4FF40073FB6100233B6200237B6207F11C0319461E4800F02A
:200820004FFA4FF4E053FB6102233B6200237B620323BB620A23FB6207F11C03194616483A
:2008400000F03EFA2023FB6100233B6200237B6207F11C0319460F4800F032FA4FF4107362
:20086000FB6112233B6200237B620023BB620423FB6207F11C031946084800F021FA00BFF6
:200880003037BD4680BD00BF003802400010024000080240000C0240000002400004024006
:2008A00080B400AF72B600BFFEE7000080B582B000AF00237B60104B5B6C0F4A43F4804300
:2008C00053640D4B5B6C03F480437B607B6800233B60094B1B6C084A43F080531364064B11
:2008E0001B6C03F080533B603B68072000F0B4F900BF0837BD4680BD0038024080B400AF0E
:20090000FEE780B400AFFEE780B400AFFEE780B400AFFEE780B400AFFEE780B400AF00BF30
:20092000BD465DF8047B704780B400AF00BFBD465DF8047B704780B400AF00BFBD465DF8FF
:20094000047B704780B500AF00F090F800BF80BD80B400AF064BD3F88830054A43F4700359
:20096000C2F8883000BFBD465DF8047B704700BF00ED00E0DFF834D00D480E490E4A00232A
:2009800002E0D458C4500433C4188C42F9D30B4A0B4C002301E013600432A242FBD3FFF787
:2009A000D7FF00F06BFFFFF793FD704700000220000000200C0000200C1900080C00002003
:2009C0002C000020FEE7000080B500AF0E4B1B680D4A43F4007313600B4B1B680A4A43F44E
:2009E00080631360084B1B68074A43F480731360032000F031F9002000F008F8FFF756FF45
:200A00000023184680BD00BF003C024080B582B000AF7860124B1A68124B1B7819464FF47C
:200A20007A73B3FBF1F3B2FBF3F3184600F03BF90346002B01D001230EE07B680F2B0AD8CC
:200A4000002279684FF0FF3000F011F9064A7B681360002300E0012318460837BD4680BD81
:200A600000000020080000200400002080B400AF064B1B781A46064B1B681344044A1360F7
:200A800000BFBD465DF8047B704700BF080000202800002080B400AF034B1B681846BD46C5
:200AA0005DF8047B704700BF2800002080B584B000AF7860FFF7EEFFB8607B68FB60FB6818
:200AC000B3F1FF3F05D00A4B1B781A46FB681344FB6000BFFFF7DEFF0246BB68D31AFA68B6
:200AE0009A42F7D800BF00BF1037BD4680BD00BF0800002080B485B000AF78607B6803F099
:200B00000703FB600C4BDB68BB60BA684FF6FF031340BB60FB681A02BB68134343F0BF6397
:200B200043F40033BB60044ABB68D36000BF1437BD465DF8047B704700ED00E080B400AF44
:200B4000044BDB681B0A03F007031846BD465DF8047B704700ED00E080B483B000AF0346C9
:200B60003960FB7197F90730002B0ADB3B68DAB20C4997F907301201D2B20B4483F80023CA
:200B80000AE03B68DAB20849FB7903F00F03043B1201D2B20B441A7600BF0C37BD465DF863
:200BA000047B704700E100E000ED00E080B489B000AFF860B9607A60FB6803F00703FB614E
:200BC000FB69C3F10703042B28BF0423BB61FB690433062B02D9FB69033B00E000237B6172
:200BE0004FF0FF32BB6902FA03F3DA43BB681A407B699A404FF0FF317B6901FA03F3D943B7
:200C00007B680B40134318462437BD465DF8047B7047000080B582B000AF78607B68013BFC
:200C2000B3F1807F01D301230FE00A4A7B68013B53600F214FF0FF30FFF78EFF054B002271
:200C40009A60044B07221A60002318460837BD4680BD00BF10E000E080B582B000AF78602B
:200C60007868FFF747FF00BF0837BD4680BD80B586B000AF0346B9607A60FB7300237B6157
:200C8000FFF75CFF78617A68B9687869FFF78EFF024697F90F3011461846FFF75DFF00BFE6
:200CA0001837BD4680BD80B582B000AF78607868FFF7B0FF034618460837BD4680BD00000C
:200CC00080B489B000AF7860396000237B6100233B610023BB610023FB6159E10122FB694A
:200CE00002FA03F37B613B681B687A6913403B613A697B699A4240F048813B685B6803F079
:200D00000303012B05D03B685B6803F00303022B30D17B689B68BB61FB695B00032202FA5D
:200D200003F3DB43BA691340BB613B68DA68FB695B0002FA03F3BA691343BB617B68BA69DC
:200D40009A607B685B68BB610122FB6902FA03F3DB43BA691340BB613B685B681B0903F031
:200D60000102FB6902FA03F3BA691343BB617B68BA695A603B685B6803F00303032B17D051
:200D80007B68DB68BB61FB695B00032202FA03F3DB43BA691340BB613B689A68FB695B0027
:200DA00002FA03F3BA691343BB617B68BA69DA603B685B6803F00303022B23D1FB69DA08A6
:200DC0007B68083253F82230BB61FB6903F007039B000F2202FA03F3DB43BA691340BB616E
:200DE0003B681A69FB6903F007039B0002FA03F3BA691343BB61FB69DA087B680832B969C5
:200E000043F822107B681B68BB61FB695B00032202FA03F3DB43BA691340BB613B685B68F7
:200E200003F00302FB695B0002FA03F3BA691343BB617B68BA691A603B685B6803F4403324
:200E4000002B00F0A2800023FB60574B5B6C564A43F480435364544B5B6C03F48043FB60A2
:200E6000FB68524AFB699B08023352F82330BB61FB6903F003039B000F2202FA03F3DB4345
:200E8000BA691340BB617B68494A934219D07B68484A934213D07B68474A93420DD07B6856
:200EA000464A934207D07B68454A934201D1042308E0072306E0032304E0022302E0012389
:200EC00000E00023FA6902F0030292009340BA691343BB613549FB699B080233BA6941F8A5
:200EE0002320384B1B68BB613B69DB43BA691340BB613B685B6803F48033002B03D0BA6908
:200F00003B691343BB612F4ABB6913602D4B5B68BB613B69DB43BA691340BB613B685B689A
:200F200003F40033002B03D0BA693B691343BB61244ABB695360234B9B68BB613B69DB43BC
:200F4000BA691340BB613B685B6803F48013002B03D0BA693B691343BB611A4ABB6993605D
:200F6000184BDB68BB613B69DB43BA691340BB613B685B6803F40013002B03D0BA693B6926
:200F80001343BB610F4ABB69D360FB690133FB61FB690F2B7FF6A2AE00BF00BF2437BD46FC
:200FA0005DF8047B704700BF0038024000380140000002400004024000080240000C0240D4
:200FC00000100240003C014080B483B000AF78600B467B8013467B707B78002B03D07A88D1
:200FE0007B689A6103E07B881A047B689A6100BF0C37BD465DF8047B7047000080B586B036
:2010000000AF78607B68002B01D1012364E27B681B6803F00103002B75D0A34B9B6803F04E
:201020000C03042B0CD0A04B9B6803F00C03082B12D19D4B5B6803F48003B3F5800F0BD158
:20104000994B1B6803F40033002B5BD07B685B68002B57D101233FE27B685B68B3F5803F5E
:2010600006D1914B1B68904A43F4803313601DE07B685B68B3F5A02F0CD18B4B1B688A4ADF
:2010800043F480231360884B1B68874A43F4803313600BE0844B1B68834A23F48033136038
:2010A000814B1B68804A23F4802313607B685B68002B13D0FFF7EEFC386108E0FFF7EAFCF9
:2010C00002463B69D31A642B01D9032304E2764B1B6803F40033002BF0D014E0FFF7DAFCA9
:2010E000386108E0FFF7D6FC02463B69D31A642B01D90323F0E16C4B1B6803F40033002BDF
:20110000F0D100E000BF7B681B6803F00203002B63D0654B9B6803F00C03002B0BD0624B4B
:201120009B6803F00C03082B1CD15F4B5B6803F48003002B16D15C4B1B6803F00203002B44
:2011400005D07B68DB68012B01D00123C4E1564B1B6823F0F8027B681B69DB00524913436A
:201160000B603AE07B68DB68002B20D04F4B01221A60FFF78FFC386108E0FFF78BFC0246AB
:201180003B69D31A022B01D90323A5E1464B1B6803F00203002BF0D0434B1B6823F0F802F6
:2011A0007B681B69DB00404913430B6015E03F4B00221A60FFF76EFC386108E0FFF76AFC4B
:2011C00002463B69D31A022B01D9032384E1364B1B6803F00203002BF0D17B681B6803F063
:2011E0000803002B30D07B685B69002B16D0304B01221A60FFF74EFC386108E0FFF74AFCEC
:2012000002463B69D31A022B01D9032364E1264B5B6F03F00203002BF0D015E0244B0022DF
:201220001A60FFF737FC386108E0FFF733FC02463B69D31A022B01D903234DE11A4B5B6F02
:2012400003F00203002BF0D17B681B6803F00403002B00F0A0800023FB75134B1B6C03F0A4
:201260008053002B0FD10023BB600F4B1B6C0E4A43F0805313640C4B1B6C03F08053BB60DD
:20128000BB680123FB750B4B1B6803F48073002B21D1084B1B68074A43F480731360FFF7FD
:2012A000F9FB386111E000BF0038024000004742800E474200700040FFF7ECFB02463B695E
:2012C000D31A022B01D9032306E1854B1B6803F48073002BF0D07B689B68012B06D1814B30
:2012E0001B6F804A43F0010313671CE07B689B68052B0CD17B4B1B6F7A4A43F00403136732
:20130000784B1B6F774A43F0010313670BE0754B1B6F744A23F001031367724B1B6F714A88
:2013200023F0040313677B689B68002B15D0FFF7B1FB38610AE0FFF7ADFB02463B69D31A87
:2013400041F28832934201D90323C5E0654B1B6F03F00203002BEED014E0FFF79BFB3861F2
:201360000AE0FFF797FB02463B69D31A41F28832934201D90323AFE05A4B1B6F03F00203AA
:20138000002BEED1FB7D012B05D1564B1B6C554A23F0805313647B689B69002B00F09B80A8
:2013A000504B9B6803F00C03082B5CD07B689B69022B41D14C4B00221A60FFF76BFB3861E0
:2013C00008E0FFF767FB02463B69D31A022B01D9032381E0434B1B6803F00073002BF0D103
:2013E0007B68DA697B681B6A1A437B685B6A9B011A437B689B6A5B08013B1B041A437B687B
:20140000DB6A1B06374913434B60374B01221A60FFF740FB386108E0FFF73CFB02463B69FB
:20142000D31A022B01D9032356E02E4B1B6803F00073002BF0D04EE02B4B00221A60FFF7D9
:2014400029FB386108E0FFF725FB02463B69D31A022B01D903233FE0224B1B6803F0007356
:20146000002BF0D137E07B689B69012B01D1012332E01C4B5B68FB607B689B69012B28D0BE
:20148000FB6803F480027B68DB699A4221D1FB6803F03F027B681B6A9A421AD1FA6847F616
:2014A000C07313407A68526A9201934211D1FB6803F440327B689B6A5B08013B1B049A4270
:2014C00007D1FB6803F070627B68DB6A1B069A4201D0012300E0002318461837BD4680BD02
:2014E00000700040003802406000474280B584B000AF786039607B68002B01D10123CCE0A0
:20150000684B1B6803F007033A689A420CD9654B3A68D2B21A70634B1B6803F007033A6805
:201520009A4201D00123B8E07B681B6803F00203002B20D07B681B6803F00403002B05D069
:20154000594B9B68584A43F4E05393607B681B6803F00803002B05D0534B9B68524A43F40D
:2015600060439360504B9B6823F0F0027B689B684D4913438B607B681B6803F00103002BED
:2015800044D07B685B68012B07D1474B1B6803F40033002B19D101237FE07B685B68022BE3
:2015A00003D07B685B68032B07D13F4B1B6803F00073002B09D101236FE03B4B1B6803F0C5
:2015C0000203002B01D1012367E0374B9B6823F003027B685B68344913438B60FFF75AFA53
:2015E000F8600AE0FFF756FA0246FB68D31A41F28832934201D903234FE02B4B9B6803F06E
:201600000C027B685B689B009A42EBD1254B1B6803F007033A689A420CD2224B3A68D2B204
:201620001A70204B1B6803F007033A689A4201D0012332E07B681B6803F00403002B08D04D
:20164000194B9B6823F4E0527B68DB68164913438B607B681B6803F00803002B09D0124B4F
:201660009B6823F460427B681B69DB000E4913438B6000F021F802460B4B9B681B0903F013
:201680000F030A49CB5C22FA03F3094A1360094B1B681846FFF7BAF9002318461037BD463D
:2016A00080BD00BF003C024000380240EC18000800000020040000202DE9B04384B000AFFA
:2016C00000237B600023FB6000233B600023BB60674B9B6803F00C03082B0DD0082B00F2A6
:2016E000BD80002B02D0042B03D0B7E0614BBB60B7E0614BBB60B4E05D4B5B6803F03F03BE
:201700007B605B4B5B6803F48003002B4DD0584B5B689B091A464FF0000340F2FF104FF097
:20172000000102EA000803EA0109404649464FF000024FF000034B0143EAD06342011046E0
:201740001946B0EB080061EB09014FF000024FF000038B0143EA90638201121A63EB010301
:201760004FF000004FF00001D90041EA5271D00002460B4612EB080243EB09034FF000003A
:201780004FF00001590241EAD251500202460B46104619467B681A464FF00003FEF71CFD2D
:2017A00002460B461346FB604AE0314B5B689B091A464FF0000340F2FF104FF0000102EAC0
:2017C000000403EA0105204629464FF000024FF000034B0143EAD063420110461946001BFB
:2017E00061EB05014FF000024FF000038B0143EA90638201121A63EB01034FF000004FF0E9
:201800000001D90041EA5271D00002460B46121945EB03034FF000004FF00001990241EAF1
:201820009251900202460B46104619467B681A464FF00003FEF7D0FC02460B461346FB6052
:201840000B4B5B681B0C03F0030301335B003B60FA683B68B2FBF3F3BB6002E0054BBB6025
:2018600000BFBB6818461037BD46BDE8B08300BF003802400024F40000127A0070B50D4DAA
:201880000D4C641BA4100026A64209D10B4D0C4C00F020F8641BA4100026A64205D170BDD8
:2018A00055F8043B98470136EEE755F8043B98470136F2E7041900080419000804190008C7
:2018C0000819000802440346934200D1704703F8011BF9E7F8B500BFF8BC08BC9E4670477D
:2018E000F8B500BFF8BC08BC9E467047000000000000000001020304060708090CE9FF7FCE
:2019000001000000BD010008990100080024F4001000000001000000FFFFFFFFFFFFFFFF3D
:20192000FFFFFFFFFFFFFFFFFFFFFFFFFFFFFFFFFFFFFFFFFFFFFFFFFFFFFFFFFFFFFFFFC7
:20194000FFFFFFFFFFFFFFFFFFFFFFFFFFFFFFFFFFFFFFFFFFFFFFFFFFFFFFFFFFFFFFFFA7
:20196000FFFFFFFFFFFFFFFFFFFFFFFFFFFFFFFFFFFFFFFFFFFFFFFFFFFFFFFFFFFFFFFF87
:20198000FFFFFFFFFFFFFFFFFFFFFFFFFFFFFFFFFFFFFFFFFFFFFFFFFFFFFFFFFFFFFFFF67
:020000040800F2
:020000040800F2
:2040000000E0002318461837BD4680BD00700040003802406000474280B584B000AF7860AD
:2040200039607B68002B01D10123CCE0684B1B6803F007033A689A420CD9654B3A68D2B2CB
:204040001A70634B1B6803F007033A689A4201D00123B8E07B681B6803F00203002B20D024
:204060007B681B6803F00403002B05D0594B9B68584A43F4E05393607B681B6803F00803D6
:20408000002B05D0534B9B68524A43F460439360504B9B6823F0F0027B689B684D491343A1
:2040A0008B607B681B6803F00103002B44D07B685B68012B07D1474B1B6803F40033002B65
:2040C00019D101237FE07B685B68022B03D07B685B68032B07D13F4B1B6803F00073002B83
:2040E00009D101236FE03B4B1B6803F00203002B01D1012367E0374B9B6823F003027B688A
:204100005B68344913438B60FCF7C0FEF8600AE0FCF7BCFE0246FB68D31A41F28832934224
:2041200001D903234FE02B4B9B6803F00C027B685B689B009A42EBD1254B1B6803F007030D
:204140003A689A420CD2224B3A68D2B21A70204B1B6803F007033A689A4201D0012332E076
:204160007B681B6803F00403002B08D0194B9B6823F4E0527B68DB68164913438B607B6883
:204180001B6803F00803002B09D0124B9B6823F460427B681B69DB000E4913438B6000F0B7
:2041A00021F802460B4B9B681B0903F00F030A49CB5C22FA03F3094A1360094B1B68184695
:2041C000FCF720FE002318461037BD4680BD00BF003C024000380240307D0008000000203A
:2041E000040000202DE9B04384B000AF00237B600023FB6000233B600023BB60674B9B6882
:2042000003F00C03082B0DD0082B00F2BD80002B02D0042B03D0B7E0614BBB60B7E0614B8A
:20422000BB60B4E05D4B5B6803F03F037B605B4B5B6803F48003002B4DD0584B5B689B091F
:204240001A464FF0000340F2FF104FF0000102EA000803EA0109404649464FF000024FF0BB
:2042600000034B0143EAD063420110461946B0EB080061EB09014FF000024FF000038B018F
:2042800043EA90638201121A63EB01034FF000004FF00001D90041EA5271D00002460B464E
:2042A00012EB080243EB09034FF000004FF00001590241EAD251500202460B4610461946F5
:2042C0007B681A464FF00003FBF786FF02460B461346FB604AE0314B5B689B091A464FF0E9
:2042E000000340F2FF104FF0000102EA000403EA0105204629464FF000024FF000034B01B3
:2043000043EAD063420110461946001B61EB05014FF000024FF000038B0143EA9063820126
:20432000121A63EB01034FF000004FF00001D90041EA5271D00002460B46121945EB0303EF
:204340004FF000004FF00001990241EA9251900202460B46104619467B681A464FF00003D0
:20436000FBF73AFF02460B461346FB600B4B5B681B0C03F0030301335B003B60FA683B685D
:20438000B2FBF3F3BB6002E0054BBB6000BFBB6818461037BD46BDE8B08300BF0038024087
:2043A0000024F40000127A0080B400AF034B1B681846BD465DF8047B704700BF00000020DA
:2043C00080B500AFFFF7F0FF0246054B9B689B0A03F007030349CB5C22FA03F3184680BDB7
:2043E00000380240407D000880B586B000AF786000237B6100233B617B681B6803F0010371
:20440000002B05D17B681B6803F00403002B38D0684B00221A60FCF739FD786108E0FCF7DC
:2044200035FD02467B69D31A022B01D90323BDE0614B1B6803F00063002BF0D17B685A6851
:204440007B689B689B011A437B68DB681B075A491343C1F88430574B01221A60FCF716FD8A
:20446000786108E0FCF712FD02467B69D31A022B01D903239AE0504B1B6803F00063002B1A
:20448000F0D07B681B6803F00203002B00F083800023FB60484B1B6C474A43F0805313643A
:2044A000454B1B6C03F08053FB60FB68434B1B68424A43F480731360FCF7E8FC786108E08F
:2044C000FCF7E4FC02467B69D31A022B01D903236CE03A4B1B6803F48073002BF0D0364B19
:2044E0001B6F03F440733B613B69002B2FD07B681B6903F440733A699A4228D02E4B1B6F93
:2045000023F440733B612E4B01221A602C4B00221A60294A3B691367274B1B6F03F0010388
:20452000012B14D1FCF7B2FC78610AE0FCF7AEFC02467B69D31A41F28832934201D903238E
:2045400034E01D4B1B6F03F00203002BEED07B681B6903F44073B3F5407F0DD1164B9B68BA
:2045600023F4F8127B681B6923F0704323F44073114913438B6005E00F4B9B680E4A23F4D7
:20458000F81393600C4B1A6F7B681B69C3F30B03094913430B677B681B6803F00803002B69
:2045A00003D07B681A7D074B1A60002318461837BD4680BD680047420038024000700040B7
:2045C000400E4742E011474280B487B000AF786000237B6100233B610023FB600023BB601E
:2045E0007B68012B40D1244B9B6803F40003FB60FB68002B05D0FB68012B31D11F4B7B619A
:2046000031E01D4B5B6803F48003B3F5800F09D1194BD3F8843003F03F03194AB2FBF3F3C5
:204620003B6108E0144BD3F8843003F03F03154AB2FBF3F33B61104BD3F884309B09C3F321
:2046400008023B6902FB03F3BB600B4BD3F884301B0F03F00703BA68B2FBF3F37B6102E02F
:2046600000237B6100BF00BF7B6918461C37BD465DF8047B704700BF003802400080BB0026
:2046800000127A000024F40080B582B000AF78607B68002B01D101237BE07B685B6A002B56
:2046A00008D17B685B68B3F5827F09D07B680022DA6105E07B6800221A617B6800225A6194
:2046C0007B6800229A627B6893F85130DBB2002B06D17B68002283F850207868FCF782FA1C
:2046E0007B68022283F851207B681B681A687B681B6822F040021A607B685B6803F482721A
:204700007B689B6803F404431A437B68DB6803F400631A437B681B6903F002031A437B689C
:204720005B6903F001031A437B689B6903F400731A437B68DB6903F038031A437B681B6A99
:2047400003F0800342EA03017B689B6A03F400527B681B680A431A607B689B691B0C03F054
:2047600004017B685B6A03F010027B681B680A435A607B681B68DA697B681B6822F4006293
:20478000DA617B6800225A657B68012283F85120002318460837BD4680BD84B080B584B08B
:2047A00000AF786007F11C0080E80E003B6B012B22D17B689B6B23F480327B689A637B68AE
:2047C000DB6823F4840323F040037A68D3607B68DB6823F440127B68DA60FB6C012B05D178
:2047E0007B68DB6843F480127B68DA60786800F09FF90346FB731AE07B68DB6843F04002F9
:204800007B68DA60786800F093F90346FB733B6C002B06D17B689B6B43F480327B689A630D
:2048200005E07B689B6B23F480327B689A63BB6A012B0BD17B689B6843F006027B689A60D6
:204840007B689B6843F020027B689A60FB7B18461037BD46BDE8804004B0704780B483B0EB
:2048600000AF78607B689B6843F001027B689A60002318460C37BD465DF8047B704780B432
:2048800083B000AF78607B689B6823F001027B689A60002318460C37BD465DF8047B704733
:2048A00080B584B000AF78600B46FB700023FB607B68DB6823F0C0427B68DA60FB78012BD7
:2048C00015D17B68DB6843F000527B68DA600120FCF7E8FAFB680133FB60786800F019F960
:2048E0000346012B1ED0FB68312BF0D91AE0FB78002B15D17B68DB6843F080427B68DA6017
:204900000120FCF7CFFAFB680133FB60786800F000F90346002B05D0FB68312BF0D901E04D
:20492000012305E0FB68322B01D1012300E0002318461037BD4680BD80B485B000AF7860E0
:2049400039600023FB603B689B0143F020027B681A61FB680133FB60084A934201D9032335
:2049600006E07B681B6903F02003202BF1D0002318461437BD465DF8047B7047400D03001E
:2049800080B485B000AF78600023FB607B6810221A61FB680133FB60084A934201D9032300
:2049A00006E07B681B6903F01003102BF1D0002318461437BD465DF8047B7047400D0300FE
:2049C00080B489B000AFF860B96011461A460B46FB711346BB80FB687B61BB68FB6197F8F5
:2049E0002830002B23D1BB8803339B083B610023BB6118E0FB791A037B69134403F58053BA
:204A00001A46FB691B681360FB690133FB61FB690133FB61FB690133FB61FB690133FB610C
:204A2000BB690133BB61BA693B699A42E2D3002318462437BD465DF8047B704780B48BB0D1
:204A400000AFF860B9601346FB80FB68BB61BB687B62FB889B089BB27B61FB8803F0030318
:204A6000FB8300233B6214E0BB6903F580531A687B6A1A607B6A01337B627B6A01337B6248
:204A80007B6A01337B627B6A01337B623B6A01333B623A6A7B699A42E6D3FB8B002B1ED0F8
:204AA00000233B62BB6903F580531A4607F1100312681A603A693B6ADBB2DB0022FA03F326
:204AC000DAB27B6A1A703B6A01333B627B6A01337B62FB8B013BFB83FB8B002BEAD17B6ADE
:204AE00018462C37BD465DF8047B704780B485B000AF78607B685B69FB607B689B69FA682C
:204B00001340FB60FB6818461437BD465DF8047B704780B483B000AF78607B685B6903F0C5
:204B2000010318460C37BD465DF8047B7047000080B485B000AF78600023FB60FB6801333D
:204B4000FB60134A934201D903231AE07B681B69002BF3DA0023FB607B681B6943F0010254
:204B60007B681A61FB680133FB60094A934201D9032306E07B681B6903F00103012BF1D08C
:204B8000002318461437BD465DF8047B704700BF400D030084B080B584B000AF786007F190
:204BA0001C0080E80E007B68BB60BB6803F560631A46002313607B689B6B43F400127B687C
:204BC0009A637B689B6B23F400227B689A637B689B6B23F480227B689A637B68DB6B03F434
:204BE0008073002B18D07B6A012B0AD1BB6803F580631B68BA6802F5806243F0040313609A
:204C000014E0BB6803F580631B68BA6802F5806223F00403136009E0BB6803F580631B682D
:204C2000BA6802F5806223F00403136010217868FFF782FE7868FFF7A3FE0023FB6015E07B
:204C4000FB685A01BB68134403F5A0631A464FF0FF339360FB685A01BB68134403F5A0632A
:204C60001A460023D360FB680133FB603B6AFA689A42E5D37B6800229A617B684FF0FF329E
:204C80005A617B68DB6B03F48073002B0BD07B684FF400725A627B68134A9A627B68134A70
:204CA000C3F8002109E07B6880225A627B68104A9A627B680F4AC3F80021BB6A002B05D177
:204CC0007B689B6943F010027B689A617B689A69094B13437A689361002318461037BD4699
:204CE000BDE8804004B07047000200010003E00080006000E0004000080020A380B485B0CA
:204D000000AF78600B46FB707B68FB60FB6803F580631B68FA6802F5806223F0030313608A
:204D2000FB6803F580631A68FB7803F00303F96801F5806113430B60FB78012B07D1FB6874
:204D400003F580631A464BF68033536009E0FB78022B06D1FB6803F580631A4641F270735D
:204D60005360002318461437BD465DF8047B704780B584B000AF78607B68FB600023BB60BA
:204D8000FB6803F588631B68BB60BB6823F02E03BB60BB68FA6802F5886243F480731360AA
:204DA0006420FCF77FF8BB68FA6802F5886223F4807313600A20FCF775F8002318461037D0
:204DC000BD4680BD80B485B000AF78600B46FB707B68FB600023BB60FB6803F588631B68A2
:204DE000BB60BB6823F02E03BB60BB6803F48053002B09D1FB78012B06D1BB68FA6802F532
:204E0000886243F480531360BB6803F48053B3F5805F09D1FB78002B06D1BB68FA6802F5EC
:204E2000886223F480531360002318461437BD465DF8047B704780B485B000AF78607B68FE
:204E4000FB600023BB60FB6803F588631B68BB60BB685B0C03F0030318461437BD465DF851
:204E6000047B704780B485B000AF78607B68FB60FB6803F580639B689BB218461437BD4694
:204E80005DF8047B7047000080B588B000AF7860084611461A460346FB700B46BB70134605
:204EA0007B700023FB777B683B61FB785A013B69134403F5A0631A464FF0FF33936097F8DC
:204EC0002C30032B7ED801A252F823F0DD4E0008874F0008DD4E0008494F0008FB785A0140
:204EE0003B69134403F5A0631A4640F29D43D36097F90230002B10DAFB785A013B69134477
:204F000003F5A063DB68FA7851013A690A4402F5A06243F48073D36057E07B68DB6B03F4F1
:204F20008073002B51D0FB785A013B69134403F5A063DB68FA7851013A690A4402F5A0627D
:204F400043F06003D36040E0FB785A013B69134403F5A0631A4640F29D63D36097F902301D
:204F6000002B34DAFB785A013B69134403F5A063DB68FA7851013A690A4402F5A06243F40C
:204F80008073D36023E0FB785A013B69134403F5A0631A4640F22523D36097F90230002B2A
:204FA00017DAFB785A013B69134403F5A063DB68FA7851013A690A4402F5A06243F4C073E1
:204FC000D36006E00123FB7704E000BF02E000BF00E000BF3B6903F580639A69FB7803F057
:204FE0000F03012101FA03F3396901F5806113438B617B689B6943F000727B689A6197F9D7
:205000000230002B03DA4FF40043BB6101E00023BB617868FFF70FFFF86097F82830022B44
:2050200006D1FB68022B03D04FF400337B6101E000237B617B789B0503F0FE52BB78DB021E
:2050400003F4F0431A4397F82C309B0403F440231A433B8EC3F30A031A43BB691A43FB78AB
:2050600059013B690B4403F5A06319467B6913430B6097F82C30032B0FD1FB785A013B6979
:20508000134403F5A0631B68FA7851013A690A4402F5A06243F000531360FB7F1846203765
:2050A000BD4680BD80B58CB002AFF860B9601346FB71FB683B62BB685B78FB614FF48073D0
:2050C0007B83FB68DB6B03F48073002B2DD0BB681B79002B29D1FB79012B17D1BB68DB793C
:2050E000002B03D0BB68DB79022B0FD1FB695A013B6A134403F5A063DB68FA6951013A6ADC
:205100000A4402F5A06223F07003D360FB79002B0BD1BB685B79012B07D1BB685B781946C4
:20512000F86800F02FFA0023F8E0BB685B69002B18D0BB685B69BA6812891344013BBA68A8
:205140001289B3FBF2F3FB84FA8C7B8B9A420BD97B8BFB84FB8CBA68128902FB03F2BB6878
:205160001A6101E00123FB84BB68DB78002B07D0FB8CBA68128902FB03F2BB681A6103E001
:20518000BB685A69BB681A61BB681B69C3F31202FB8CD904634B0B401A43BB689B7A5B07C6
:2051A00003F0C043F9694801396A014401F5A06113430B61FB79002B09D0BB68D968FB696D
:2051C0005A013B6A134403F5A0630A465A613B6A03F580639B6803F00103002B0CBF0123DE
:2051E0000023DBB27B76FB695A013B6A134403F5A0631B68FA6951013A6A0A4402F5A06235
:2052000023F000531360FB695A013B6A134403F5A0631A687B7E5B07F9694801396A01448F
:2052200001F5A06113430B60FB695A013B6A134403F5A0631B683B613B6923F080433B61CB
:20524000BB68DB78002B04D03B6943F400433B6103E03B6923F400433B613B6943F0004388
:205260003B61FB695A013B6A134403F5A0631A463B691360FB79002B01D000234EE0BB6881
:20528000DB78002B49D1BB685B69002B45D0BB68DB79032B30D801A252F823F0AD5200089B
:2052A000D1520008AD520008D1520008BB685B6903339B08FB82FA8AFB68DB6A9BB29A42FF
:2052C0001CD9FB689B6943F02002FB689A6115E0BB685B6903339B08FB82FA8A3B6A03F56C
:2052E00080631B699BB29A420AD9FB689B6943F08062FB689A6103E000BF02E000BF00E03E
:2053000000BFBB68D968BB685A78BB685B699BB200200090F868FFF753FB0023184628370D
:20532000BD4680BD0000F81F80B485B000AF78607B68FB60FB6803F580635B699BB218463B
:205340001437BD465DF8047B704780B489B000AF78600B46FB707B68BB61FB787B61002353
:20536000FB617B695A01BB69134403F5A0631B689B0C03F003033B617B695A01BB691344A3
:2053800003F5A0631B68DB0F03F00103FB607B689B6803F02003202B04D1FB68002B01D1D7
:2053A0000023E8E03B69002B02D03B69022B73D17B695A01BB69134403F5A0631B687A6931
:2053C0005101BA690A4402F5A06243F0804313607B689B6803F02003002B40F0CB807B6823
:2053E000DB6A03F47F03002B43D17B695A01BB69134403F5A0631B687A695101BA690A44D2
:2054000002F5A06223F0004313607B695A01BB69134403F5A0631B687A695101BA690A44EC
:2054200002F5A06243F0004313607B695A01BB69134403F5A0631B687A695101BA690A44AC
:2054400002F5A06223F400431360FB690133FB61FB69B3F57A7F1DD87B695A01BB691344DE
:2054600003F5A0631B6803F00043B3F1004FECD080E07B695A01BB69134403F5A0631B6831
:205480007A695101BA690A4402F5A06243F0004313606FE000BF6DE07B695A01BB6913446F
:2054A00003F5A0631B687A695101BA690A4402F5A06243F080431360BB6903F580631B69E3
:2054C00003F47F03002B43D17B695A01BB69134403F5A0631B687A695101BA690A4402F53F
:2054E000A06223F0004313607B695A01BB69134403F5A0631B687A695101BA690A4402F50C
:20550000A06243F0004313607B695A01BB69134403F5A0631B687A695101BA690A4402F5CB
:20552000A06223F400431360FB690133FB61FB69B3F57A7F1DD87B695A01BB69134403F5FC
:20554000A0631B6803F00043B3F1004FECD011E07B695A01BB69134403F5A0631B687A69D4
:205560005101BA690A4402F5A06243F00043136000E000BF002318462437BD465DF8047B34
:205580007047000080B487B000AF78600B46FB707B687B61FB783B610123FB60FB68DA0418
:2055A000154B13403A6951017A690A4402F5A06243F0004313613B695A017B69134403F5FD
:2055C000A0631B68BB60BB6823F08043BB60BB6843F00043BB603B695A017B69134403F530
:2055E000A0631A46BB681360002318461C37BD465DF8047B704700BF0000F81F80B586B00F
:2056000000AF78607B68FB6000237B617868FFF736F910217868FFF78FF97868FFF7B0F9B3
:2056200000233B611FE03B695A01FB68134403F5A0631B68BB60BB6843F08043BB60BB6803
:2056400023F00043BB60BB6823F40043BB603B695A01FB68134403F5A0631A46BB68136097
:205660003B6901333B613B690F2BDCD900233B6134E03B695A01FB68134403F5A0631B6819
:20568000BB60BB6843F08043BB60BB6843F00043BB60BB6823F40043BB603B695A01FB680D
:2056A000134403F5A0631A46BB6813607B6901337B617B69B3F57A7F0CD83B695A01FB68E3
:2056C000134403F5A0631B6803F00043B3F1004FECD000E000BF3B6901333B613B690F2B1F
:2056E000C7D9FB6803F580631A464FF0FF3353617B684FF0FF325A617868FFF7AFF8002399
:2057000018461837BD4680BD90B589B004AF7860012302220221786800F066FC0346FB733F
:20572000FB7BFF2B02D0FB7B012B01D902233DE1FB7B1946786800F03BFC0346BB73BB7BAF
:20574000002B01D0022331E17B68D3F87C43502002F000FA0346E3617B68D3F87C33DB691F
:20576000BB60BB68002B01D102231FE150220021B86802F0FFF9FB7B7A681A2101FB03F3A7
:20578000134403F24E331B785BB2002B15DAFB7B7A681A2101FB03F3134403F24E331A789E
:2057A000BB685A70FB7B7A681A2101FB03F3134403F554731A88BB685A81BB685B7819466C
:2057C000786801F032FE03461A46BB681A70BB681978BB6858787B6893F81C437B6893F890
:2057E0001D33BA685289029203220192009323460246786801F0EAFDBB681B7800221946DD
:20580000786802F0F9F8002300220A21786800F0EBFB0346FB73FB7BFF2B02D0FB7B012BD4
:2058200001D90223C2E0FB7B7A681A2101FB03F3134403F24E331B785BB2002B16DAFB7B44
:205840007A681A2101FB03F3134403F24E331A78BB68DA73FB7B7A681A2101FB03F313448E
:2058600003F554731A88BB685A8315E0FB7B7A681A2101FB03F3134403F24E331A78BB68CB
:205880009A73FB7B7A681A2101FB03F3134403F554731A88BB681A83FB7B7A681A2101FB6F
:2058A00003F3134403F256331B785BB2002B16DAFB7B7A681A2101FB03F3134403F2563308
:2058C0001A78BB68DA73FB7B7A681A2101FB03F3134403F556731A88BB685A8315E0FB7B1C
:2058E0007A681A2101FB03F3134403F256331A78BB689A73FB7B7A681A2101FB03F3134426
:2059000003F556731A88BB681A83BB689B7B1946786801F08AFD03461A46BB685A73BB68B8
:20592000DB7B1946786801F080FD03461A46BB681A73BB68597BBB68987B7B6893F81C4311
:205940007B6893F81D33BA68128B029202220192009323460246786801F038FDBB68197B7E
:20596000BB68D87B7B6893F81C437B6893F81D33BA68528B02920222019200932346024698
:20598000786801F023FDBB68002283F84C20BB685B7B00221946786802F02EF8BB681B7BBF
:2059A00000221946786802F027F8002318461437BD4690BD80B584B000AF78607B68D3F8BB
:2059C0007C33DB69FB60FB681B78002B0ED0FB681B781946786801F018FDFB681B781946EA
:2059E000786801F043FDFB6800221A70FB681B7B002B0ED0FB681B7B1946786801F005FD5A
:205A0000FB681B7B1946786801F030FDFB6800221A73FB685B7B002B0ED0FB685B7B194644
:205A2000786801F0F2FCFB685B7B1946786801F01DFDFB6800225A737B68D3F87C33DB6931
:205A4000002B0BD07B68D3F87C33DB69184602F089F87B68D3F87C330022DA610023184693
:205A60001037BD4680BD80B584B000AF78607B68D3F87C33DB69FB60FB684033194678689E
:205A800000F0B1F80346FB72FB7A002B05D17B68D3F8D433022178689847FB7A1846103790
:205AA000BD4680BD80B584B000AF78600123FB730023BB737B68D3F87C33DB69BB60BB68F4
:205AC00093F84C30042B77D801A252F823F000BFE55A0008EB5A00081B5B00088F5B00087E
:205AE0009D5B00080023FB736DE0BB689B6C1946786800F097F80346BB73BB7B002B04D133
:205B0000BB68022283F84C2058E0BB7B012B55D0BB68042283F84C2050E0BB684033194643
:205B2000786800F060F80346BB73BB7B002B26D1BB68002283F84C20BB6893F84420BB680D
:205B40009B6C1B799A423BD1BB6893F84620BB689B6C9B799A4233D1BB6893F84520BB685A
:205B60009B6C5B799A422BD1BB681A6CBB689B6C1B689A4224D1786800F058F920E0BB7BF4
:205B8000012B1DD0BB68042283F84C2018E0786800F067F8786800F0DAF814E000217868FE
:205BA00000F0E3FF0346BB73BB7B002B0AD1BB68002283F84C2005E000BF04E000BF02E00B
:205BC00000BF00E000BFFB7B18461037BD4680BD80B483B000AF7860002318460C37BD4657
:205BE0005DF8047B704780B582B000AF786039607B68A1221A747B6821225A747B68002266
:205C00005A827B6800229A827B680722DA823B6807221946786801F088F9034618460837BC
:205C2000BD4680BD80B582B000AF786039607B6821221A747B6820225A747B6800225A8215
:205C40007B6800229A827B680722DA823B6807221946786801F069F9034618460837BD4674
:205C600080BD80B586B002AF78607B68D3F87C33DB69FB600023FB72FB6893F84D30012BD0
:205C800002D0022B23D05EE0FB685B6AFA68128B93420BD9FB68D969FB681A8BFB685B7B0E
:205CA00001200090786801F04EFB0BE0FB68D969FB685B6A9AB2FB685B7B0120009078684B
:205CC00001F041FBFB68022283F84D203BE0FB685B7B1946786801F065FE0346FB72FB7A16
:205CE000012B28D1FB685B6AFA68128B93420ED9FB685B6AFA68128B9A1AFB685A62FB683F
:205D0000DB69FA68128B1A44FB68DA6102E0FB6800225A62FB685B6A002B04D0FB68012274
:205D200083F84D200EE0FB68002283F84D20786800F068F806E0FB7A022B03D1FB6801220E
:205D400083F84D2000BF00BF1037BD4680BD80B586B000AF78607B68D3F87C33DB697B61E7
:205D60000023FB747B6993F84E30032B02D0042B0ED043E07B69196A7B695A8B7B691B7BCA
:205D8000786801F005FB7B69042283F84E2035E07B691B7B1946786801F004FE0346FB74C6
:205DA000FB7C012B29D17B691B7B1946786801F067FDF8607B699B6AFA689A4216D07B69EF
:205DC0005B8B1A46FB68934210D97B699A6AFB68D21A7B699A627B691A6AFB681A447B6938
:205DE0001A627B69032283F84E2006E07B69002283F84E20786800F00FF800BF00BF1837BC
:205E0000BD4680BD80B483B000AF786000BF0C37BD465DF8047B704780B483B000AF7860D6
:205E200000BF0C37BD465DF8047B704780B483B000AF786000BF0C37BD465DF8047B704754
:205E400080B584B000AFF860B9601346FB71FB68002B01D1022329E0FB68FA7983F8CC2326
:205E6000FB680022C3F87C23FB680022C3F88023F86800F01FF8FB68002283F82323FB6850
:205E8000002283F82023FB68002283F82123FB68002283F82223BB68002B03D0FB68BA68F3
:205EA000C3F8D423F86801F037FC002318461037BD4680BD80B485B000AF78600023FB6036
:205EC0000023FB6009E07A68FB68E0339B00134400225A60FB680133FB60FB680E2BF2D9DC
:205EE0000023FB6009E07A68FB68134403F58E7300221A70FB680133FB60FB68B3F5007F7E
:205F0000F1D37B6800221A707B6800225A707B6801229A707B680022C3F8C4237B680122A2
:205F20001A767B6840229A717B6800225A767B68002283F81C237B68012283F81D237B6849
:205F4000002283F81F237B68002283F81E23002318461437BD465DF8047B704780B485B0DE
:205F600000AF786039600023FB733B68002B16D07B68D3F88033002B0ED17B68D3F88033F0
:205F8000591C7A68C2F880137A68DE33396842F823100023FB7304E00223FB7301E002234E
:205FA000FB73FB7B18461437BD465DF8047B704780B485B000AF78600B46FB700023FB7389
:205FC0007B6893F83C33FA789A4204D27B68FA7883F8242301E00223FB73FB7B1846143716
:205FE000BD465DF8047B704780B487B000AF7860084611461A460346FB700B46BB70134693
:020000040800F2
:206000007B700023FB7500233B617B6803F54E73FB6025E0FB7D1A2202FB03F30833FA6803
:20602000134402333B613B695B79FA789A4202D0FB78FF2B11D13B699B79BA789A4202D089
:20604000BB78FF2B09D13B69DB797A789A4202D07B78FF2B01D1FB7D06E0FB7D0133FB7508
:20606000FB7D012BD6D9FF2318461C37BD465DF8047B704780B582B000AF7860786801F0AD
:2060800087FB0121786801F0A0FC002318460837BD4680BD80B588B004AF78600223BB73A4
:2060A0000023FB737B6893F82133DBB2012B02D17B6803221A707B681B78DBB20B2B00F244
:2060C000B38101A252F823F0F96000082B61000893610008C3630008296400083762000837
:2060E000696300086D6200088D620008AD620008DB620008AB6300087B6893F82033DBB23E
:20610000002B00F093817B6801221A70C82001F0A3FC786801F099FB7B68002283F81C2324
:206120007B680022C3F8C82380E17B6893F82333012B07D17B68002283F81F237B680222C2
:206140001A7082E17B68D3F8C833B3F57A7F14D97B6893F81F330133DAB27B6883F81F23FB
:206160007B6893F81F33032B03D97B680D221A706BE17B6800221A7067E17B68D3F8C833ED
:2061800003F10A027B68C3F8C8230A2001F064FC5BE17B68D3F8D433002B05D07B68D3F85C
:2061A000D433042178689847642001F055FC786801F024FB03461A467B6883F81D237B6814
:2061C00005221A700021786801F02FF903461A467B685A718021786801F027F903461A4662
:2061E0007B681A717B6819797B6893F81C037B6893F81D337A68927992B2029200220192F7
:20620000009303468022786801F0E0F87B6859797B6893F81C037B6893F81D337A6892796A
:2062200092B2029200220192009303460022786801F0CCF809E1786800F00CF90346BB7308
:20624000BB7BDBB2002B40F0F3807B68002283F824237B6893F83733012B03D17B68082201
:206260001A70E5E07B6807221A70E1E07B68D3F8D433002B00F0DE807B68D3F8D433012173
:20628000786898477B6808221A70D3E07B6893F83D339BB21946786800F020FC0346002B0B
:2062A00040F0CA807B6809221A70C5E07B6893F83F3303F02003002B0BD00121786800F039
:2062C00030FC0346002B40F0B9807B680A221A70B4E07B680A221A70B0E07B68D3F88033FE
:2062E000002B00F0AD807B680022C3F87C230023FB7316E0FA7B7B68DE3253F822301A79D8
:206300007B6893F847339A4208D1FA7B7B68DE3253F822207B68C3F87C2305E0FB7B01331F
:20632000FB73FB7B002BE5D07B68D3F87C33002B16D07B68D3F87C339B68786898470346C3
:20634000002B09D17B6806221A707B68D3F8D43303217868984773E07B680D221A706FE0CD
:206360007B680D221A706BE07B68D3F87C33002B17D07B68D3F87C331B69786898470346DE
:20638000BB73BB7BDBB2002B03D17B680B221A7058E0BB7BDBB2022B54D17B680D221A708A
:2063A00050E07B680D221A704CE07B68D3F87C33002B49D07B68D3F87C335B697868984764
:2063C00042E07B68002283F821237868FFF772FD7B68D3F87C33002B09D07B68D3F87C33D4
:2063E000DB68786898477B680022C3F87C237B68D3F8D433002B05D07B68D3F8D4330521AC
:20640000786898477B6893F82233DBB2012B07D17B68002283F822237868FFF72BFE14E0B1
:20642000786801F0B5F910E000BF0EE000BF0CE000BF0AE000BF08E000BF06E000BF04E0FD
:2064400000BF02E000BF00E000BF002318461037BD4680BD80B588B004AF78600123FB73AB
:206460000123BB737B685B78072B00F2C18101A252F823F09564000853650008BD650008C3
:206480004B660008B5660008256700086B670008B16700080821786800F050FA0346BB73D8
:2064A000BB7B002B30D17B6893F82D237B689A717B6801225A707B6819797B6893F81C03FC
:2064C0007B6893F81D337A68927992B2029200220192009303468022786800F077FF7B68DD
:2064E00059797B6893F81C037B6893F81D337A68927992B202920022019200930346002207
:20650000786800F063FF75E1BB7B032B40F072817B6893F81E330133DAB27B6883F81E234E
:206520007B6893F81E33032B03D97B680D221A7060E17B685B791946786800F097FF7B6856
:206540001B791946786800F091FF7B6800221A7050E11221786800F0F1F90346BB73BB7B8E
:20656000002B03D17B6802225A7045E1BB7B032B40F042817B6893F81E330133DAB27B686C
:2065800083F81E237B6893F81E33032B03D97B680D221A7030E17B685B791946786800F0E3
:2065A00065FF7B681B791946786800F05FFF7B6800225A707B6800221A701DE10121786815
:2065C00000F068FA0346BB73BB7B002B32D1022001F042FA7B68012283F81C237B68032277
:2065E0005A707B6819797B6893F81C037B6893F81D337A68927992B2029200220192009304
:2066000003468022786800F0E1FE7B6859797B6893F81C037B6893F81D337A68927992B2AF
:20662000029200220192009303460022786800F0CDFEE3E0BB7B032B40F0E0807B680D22AF
:206640001A707B6800225A70D8E00921786800F09DF90346BB73BB7B002B03D17B680422E4
:206660005A70CDE0BB7B032B40F0CA807B6893F81E330133DAB27B6883F81E237B6893F839
:206680001E33032B03D97B680D221A70B8E07B685B791946786800F0E9FE7B681B791946C8
:2066A000786800F0E3FE7B6800225A707B6800221A70A5E07B68B3F83A331946786800F01C
:2066C00065F90346BB73BB7B002B03D17B6805225A7097E0BB7B032B40F094807B6893F84F
:2066E0001E330133DAB27B6883F81E237B6893F81E33032B03D97B680D221A7082E07B6840
:206700005B791946786800F0B1FE7B681B791946786800F0ABFE7B6800225A707B680022A4
:206720001A706FE07B6893F83433002B19D07B6893F834137B6803F58E72FF23786800F015
:2067400049F90346BB73BB7B002B03D17B6806225A7059E0BB7B032B56D17B6806225A70DD
:2067600052E07B6806225A704EE07B6893F83533002B19D07B6893F835137B6803F58E7269
:20678000FF23786800F026F90346BB73BB7B002B03D17B6807225A7038E0BB7B032B35D1E4
:2067A0007B6807225A7031E07B6807225A702DE07B6893F83633002B17D07B6893F836136F
:2067C0007B6803F58E72FF23786800F003F90346BB73BB7B002B02D10023FB7318E0BB7B86
:2067E000032B15D10023FB7312E00023FB730FE000BF0EE000BF0CE000BF0AE000BF08E0DA
:2068000000BF06E000BF04E000BF02E000BF00E000BFFB7B18461037BD4680BD80B483B06F
:2068200000AF786039607B683A68C3F8C42300BF0C37BD465DF8047B704780B582B000AF6B
:2068400078607B68D3F8C4335A1C7B68C3F8C423786800F004F800BF0837BD4680BD80B581
:2068600082B000AF78607B681B78DBB20B2B0AD17B68D3F87C33002B05D07B68D3F87C3391
:206880009B697868984700BF0837BD4680BD80B483B000AF78607B68012283F8232300BF83
:2068A0000C37BD465DF8047B704780B483B000AF78607B68002283F8232300BF0C37BD464E
:2068C0005DF8047B704780B483B000AF78607B68012283F820237B68002283F821237B68D4
:2068E000002283F82223002318460C37BD465DF8047B704780B582B000AF78607B68012270
:2069000083F821237B68002283F820237B68002283F82323786800F056FF7B681B79194634
:20692000786800F0A3FD7B685B791946786800F09DFD002318460837BD4680BD80B586B0FC
:2069400002AF78600B46FB707B6803F58E72FB789BB2009313464FF480720021786800F045
:2069600064F80346FB73FB7B002B0AD17B6803F226307B6803F58E73FA7892B2194600F079
:2069800018F9FB7B18461037BD4680BD80B586B002AF78600B467B807B681C33FB607B88BB
:2069A0000093FB684FF400720021786800F03DF80346FB72FB7A002B07D17B6803F54E733C
:2069C0007A88F968184600F064F9FB7A18461037BD4680BD80B588B002AFF8607A601A469F
:2069E0000B46FB7213463B81FB7A9BB243F440739AB2FB6803F58E713B8900930B460021A9
:206A0000F86800F012F80346FB75FB7D002B07D1FB6803F58E733A897968184600F037FA69
:206A2000FB7D18461837BD4680BD80B584B000AFF8607B600B46FB7213463B81FB689B785D
:206A4000012B1CD1FB7A63F07F03DAB2FB681A74FB6806225A74FB683A895A823B8903F440
:206A60007F43B3F5407F04D1FB6840F209429A8202E0FB6800229A82FB683A8BDA823B8B4F
:206A80001A467968F86800F050FA034618461037BD4680BD80B582B000AF78600B46FB7043
:206AA0007B689B78012B0FD17B6800221A747B6805225A74FB789AB27B685A827B680022E6
:206AC0009A827B680022DA8200220021786800F02CFA034618460837BD4680BD80B582B073
:206AE00000AF78600B467B807B689B78012B0ED17B6800221A747B6809225A747B687A886E
:206B00005A827B6800229A827B680022DA8200220021786800F009FA034618460837BD4618
:206B200080BD80B582B000AF78600B46FB707B689B78012B0FD17B6800221A747B680322D1
:206B40005A74FB789AB27B685A827B6800229A827B680022DA8200220021786800F0E5F976
:206B6000034618460837BD4680BD80B582B000AF78600B46FB707B689B78012B0FD17B6860
:206B800002221A747B6801225A747B6800225A82FB789AB27B689A827B680022DA8200224D
:206BA0000021786800F0C1F9034618460837BD4680BD80B485B000AFF860B9601346FB80A7
:206BC000BB681A78FB681A70BB685A78FB685A70BB6802331B789AB2BB6803331B789BB281
:206BE0001B029BB213439AB2FB685A80BB681A79FB681A71BB685A79FB685A71BB689A794E
:206C0000FB689A71BB68DA79FB68DA71FB88082B39D9BB6808331B789AB2BB6809331B78EB
:206C20009BB21B029BB213439AB2FB681A81BB680A331B789AB2BB680B331B789BB21B0260
:206C40009BB213439AB2FB685A81BB680C331B789AB2BB680D331B789BB21B029BB21343C3
:206C60009AB2FB689A81BB689A7BFB689A73BB68DA7BFB68DA73BB681A7CFB681A74BB68AD
:206C80005A7CFB685A7400BF1437BD465DF8047B704780B58AB000AFF860B9601346FB80F2
:206CA000BB687B62002387F82330002387F82230BB687B62BB681A78FB681A70BB685A7854
:206CC000FB685A70BB6802331B789AB2BB6803331B789BB21B029BB213439AB2FB685A80CE
:206CE000BB681A79FB681A71BB685A79FB685A71BB689A79FB689A71BB68DA79FB68DA7104
:206D0000BB681A7AFB681A72FB88092B5FD90923FB820023FB6151E007F116031946786A33
:206D200000F0E8F878627B6A5B78042B46D197F823301A2202FB03F30833FA681344023371
:206D4000FB61796AF86900F046F8002387F822300023BB6122E007F116031946786A00F0EE
:206D6000C9F878627B6A5B78052B17D197F8233097F822200132D2001A2101FB03F313446C
:206D80000833FA6813440433BB61796AB86900F051F897F82230013387F82230FB691B7991
:206DA00097F822209A4204D2FB685A88FB8A9A42D1D897F82330013387F8233097F8233037
:206DC000012B04D8FB685A88FB8A9A42A4D800BF2837BD4680BD80B483B000AF78603960A4
:206DE0003B681A787B681A703B685A787B685A703B689A787B689A703B68DA787B68DA700B
:206E00003B681A797B681A713B685A797B685A713B689A797B689A713B68DA797B68DA71E2
:206E20003B681A7A7B681A7200BF0C37BD465DF8047B704780B483B000AF786039603B68F2
:206E40001A787B681A703B685A787B685A703B689A787B689A703B68DA787B68DA703B68AA
:206E600004331B789AB23B6805331B789BB21B029BB213439AB27B689A803B689A797B689F
:206E80009A7100BF0C37BD465DF8047B704780B487B000AFF860B9601346FB80FB68013361
:206EA0001B78032B20D1FB681B789A1EFB88934228BF1346BB82FB680233FB600023FB820A
:206EC0000BE0FB8AFA6813441A78BB681A70BB680133BB60FB8A0233FB82FA8ABB8A9A42FC
:206EE000EFD3BB6800221A7000BF1C37BD465DF8047B704780B485B000AF786039603B6835
:206F00001A887B681B789BB213449AB23B681A807B681B781A467B681344FB60FB68184600
:206F20001437BD465DF8047B704780B586B000AFF860B9601346FB800123FB75FB689B780F
:206F4000012B02D0022B0FD027E0FB68BA689A60FB68FA889A81FB6801221A76FB68022204
:206F60009A700123FB7518E0F86800F01BF80346FB75FB7D002B02D0FB7D032B06D1FB680A
:206F800001229A70FB6800221A7605E0FB7D022B02D1FB6801229A7000BFFB7D18461837DE
:206FA000BD4680BD80B586B002AF78600123FB730023BB737B681B7E013B0A2B00F2568104
:206FC00001A252F823F000BFF56F00080F700008797000089F700008D7700008017100082E
:206FE0005371000875710008B1710008D7710008157200087B6803F110017B685B791A46CF
:20700000786800F043F97B6802221A7639E17B685B791946786800F0C5FC0346BB73BB7B5F
:20702000012B1ED17B681B7C23F07F037B737B68DB8A002B0AD07B7B802B03D17B6803226E
:207040001A7615E17B6805221A7611E17B7B802B03D17B6809221A760AE17B6807221A7684
:2070600006E1BB7B042B03D0BB7B022B40F000817B680B221A76FBE07B68D3F8C4339AB271
:207080007B68DA817B6899687B689A897B681B79786800F03AF97B6804221A76F1E07B6801
:2070A0001B791946786800F07DFC0346BB73BB7B012B02D17B6809221A76BB7B052B02D111
:2070C0000323FB73D6E0BB7B042B40F0D3807B680B221A76CEE07B6899687B689A897B6863
:2070E0005B7901200090786800F0EAF87B68D3F8C4339AB27B68DA817B6806221A76C0E0EF
:207100007B685B791946786800F04CFC0346BB73BB7B012B03D17B6807221A76ACE0BB7B36
:20712000052B05D17B680C221A760323FB73A3E0BB7B022B03D17B6805221A769CE0BB7B0E
:20714000042B40F099807B680B221A760223FB7392E07B681B7900220021786800F0D5F8BB
:207160007B68D3F8C4339AB27B68DA817B6808221A7686E07B681B791946786800F012FC29
:207180000346BB73BB7B012B05D17B680D221A760023FB7372E0BB7B042B03D17B680B2272
:2071A0001A766BE0BB7B052B68D10323FB7365E07B685B790122009200220021786800F0FD
:2071C0007FF87B68D3F8C4339AB27B68DA817B680A221A7655E07B685B791946786800F04F
:2071E000E1FB0346BB73BB7B012B05D10023FB737B680D221A7643E0BB7B022B03D17B6894
:2072000009221A763CE0BB7B042B39D17B680B221A7635E07B685B7E0133DAB27B685A7644
:207220007B685B7E022B06D87B6801221A767B6801229A7025E07B68D3F8D4330621786820
:2072400098477B6800225A767B685B791946786800F00CF97B681B791946786800F006F9EA
:207260007B6800221A700223FB730AE000BF08E000BF06E000BF04E000BF02E000BF00E0D3
:2072800000BFFB7B18461037BD4680BD80B588B004AFF860B9601346FB71F9790023039353
:2072A00008230293BB6801930023009300230022F86800F046FB002318461037BD4680BDC3
:2072C00080B588B004AFF860B96011461A460B46FB8013467B71FB6893F81D33002B01D01B
:2072E00000233B7679793B7E0393FB880293BB6801930123009300230022F86800F021FB42
:20730000002318461037BD4680BD80B588B004AFF860B96011461A460B46FB8013467B710C
:20732000797900230393FB880293BB6801930123009300230122F86800F003FB0023184607
:207340001037BD4680BD80B588B004AFF860B96011461A460B46FB8013467B71FB6893F85F
:207360001D33002B01D000233B7679793B7E0393FB880293BB6801930123009302230022DF
:20738000F86800F0DEFA002318461037BD4680BD80B588B004AFF860B96011461A460B4624
:2073A000FB8013467B71797900230393FB880293BB6801930123009302230122F86800F044
:2073C000C0FA002318461037BD4680BD80B586B004AF7860084611461A460346FB700B46EB
:2073E000BB7013467B707878BA78F9783B8B02933B7D01933B7C00930346786800F053FA34
:20740000002318460837BD4680BD80B582B000AF78600B46FB70FB781946786800F072FAB4
:20742000002318460837BD4680BD80B584B000AF78600B46FB70786800F036F80346FB81DD
:20744000FB894FF6FF7293420AD0FA78FB8903F00F0342F400427968E0339B000B445A6038
:20746000FB89DBB218461037BD4680BD80B483B000AF78600B46FB70FB780A2B0DD8FB786C
:207480007A68E0339B0013445A68FB78C2F30E027968E0339B000B445A60002318460C37AF
:2074A000BD465DF8047B704780B485B000AF78600023FB730023FB730FE0FB7B7A68E033D2
:2074C0009B0013445B6803F40043002B02D1FB7B9BB207E0FB7B0133FB73FB7B0A2BECD98D
:2074E0004FF6FF7318461437BD465DF8047B704780B500AF01220E490E48FEF7A1FC03460F
:20750000002B01D0F9F72AFA0B490A48FEF726FD0346002B01D0F9F721FA0648FEF7AAFD63
:207520000346002B01D0F9F719FA00BF80BD00BF51750008FC0100200C00002080B500AF4D
:207540000248FEF7A7FD00BF80BD00BFFC01002080B483B000AF78600B46FB70FB78013B17
:20756000042B19D801A252F823F000BF9975000889750008997500089175000881750008EE
:20758000094B03221A7008E0074B02221A7004E0054B01221A7000E000BF00BF0C37BD467B
:2075A0005DF8047B704700BFB000002080B58AB000AF786007F1140300221A605A609A605C
:2075C000DA601A617B681B68B3F1A04F47D100233B61254B1B6B244A43F001031363224BA8
:2075E0001B6B03F001033B613B694FF400737B610023BB610023FB6107F1140319461B48AD
:20760000F9F786FD4FF4E0537B610223BB610023FB6103233B620A237B6207F114031946AA
:207620001248F9F775FD104B5B6B0F4A43F0800353630023FB600C4B5B6C0B4A43F48043BD
:207640005364094B5B6C03F48043FB60FB68002200214320F9F725FD4320F9F73EFD00BFDB
:207660002837BD4680BD00BF003802400000024080B582B000AF78607B68D3F800331846C3
:20768000FFF7DBF800BF0837BD4680BD80B582B000AF78607B68D3F800331846FFF713F9B4
:2076A00000BF0837BD4680BD80B582B000AF78607B68D3F800331846FFF71CF900BF083756
:2076C000BD4680BD80B483B000AF78600B46FB701346BB7000BF0C37BD465DF8047B7047AC
:2076E00080B582B000AF78607B68D3F800331846FFF7CDF800BF0837BD4680BD80B582B0FD
:2077000000AF78607B68D3F800331846FFF7CDF800BF0837BD4680BD80B582B000AF7860BC
:207720007B6893F8CC33012B2AD1184A7B68C2F800337B68154AC3F8D023144B4FF0A04213
:207740001A60124B08229A60104B0122DA600F4B00221A610D4B02229A610C4B0022DA6154
:207760000A48F9F78CFE0346002B01D0F9F7F6F80648FAF770FA034619467868FFF74EF8AD
:20778000002318460837BD4680BD00BFD405002080B584B000AF78600023FB730023BB735F
:2077A0007B68D3F8D0331846FAF7DFF90346FB73FB7B184600F05CF90346BB73BB7B184616
:2077C0001037BD4680BD80B584B000AF78600023FB730023BB737B68D3F8D0331846FAF750
:2077E000E7F90346FB73FB7B184600F041F90346BB73BB7B18461037BD4680BD80B584B0F9
:2078000000AF78600123FB737B68D3F8D0331846FAF72FFA0346022B0CD0022B0DD8002B97
:2078200002D0012B03D008E00023FB7308E00123FB7305E00223FB7302E00123FB7300BFD9
:20784000FB7B18461037BD4680BD80B584B000AF78600023FB730023BB737B68D3F8D0334A
:207860001846FAF7C2F90346FB73FB7B184600F0FFF80346BB73BB7B18461037BD4680BDFA
:2078800080B582B000AF78600B46FB707B68D3F8D033FA7811461846FAF7C9F9034618460C
:2078A0000837BD4680BD90B589B004AF7860084611461A460346FB700B46BB7013467B70C7
:2078C0000023FB730023BB737B68D3F8D0037C78BA78F9783B8D029397F82430019397F84B
:2078E000203000932346F9F72CFE0346FB73FB7B184600F0BDF80346BB73BB7B184614379C
:20790000BD4690BD80B584B000AF78600B46FB700023FB730023BB737B68D3F8D033FA7866
:2079200011461846F9F79CFE0346FB73FB7B184600F09EF80346BB73BB7B18461037BD46A2
:2079400080BD90B589B004AF7860084611461A460346FB700B46BB7013467B700023FB73D7
:207960000023BB737B68D3F8D0037C78BA78F97897F82C3003933B8D02937B6A019397F8B8
:20798000203000932346F9F78FFE0346FB73FB7B184600F06DF80346BB73BB7B18461437E8
:2079A000BD4690BD80B582B000AF78600B46FB707B68D3F8D033FA7811461846FAF723F9E8
:2079C000034618460837BD4680BD80B582B000AF78600B46FB707B6893F8CC33012B03D16A
:2079E000FB78184600F070F8C820F9F75BFA002318460837BD4680BD80B485B000AF786041
:207A00000B46FB701346BB707B68D3F8D033FB60FB78FA682C2101FB03F313443B331B78AE
:207A2000002B09D0FB78FA682C2101FB03F313445433BA781A7008E0FB78FA682C2101FB8E
:207A400003F313445533BA781A70002318461437BD465DF8047B704780B582B000AF78604D
:207A60007868F9F71FFA00BF0837BD4680BD000080B485B000AF0346FB710023FB73FB790D
:207A8000032B17D801A252F823F000BF9D7A0008A37A0008A97A0008AF7A00080023FB73D9
:207AA0000BE00223FB7308E00123FB7305E00223FB7302E00223FB7300BFFB7B1846143703
:207AC000BD465DF8047B704780B584B000AF0346FB71FB79FB73FB79002B02D10023FB7366
:207AE00001E00123FB73FB7B1A4601210348F9F793FC00BF1037BD4680BD00BF0008024002
:207B0000014B1868704700BF2C00002070B50D4D0D4C641BA4100026A64209D10B4D0C4C34
:207B200000F0F8F8641BA4100026A64205D170BD55F8043B98470136EEE755F8043B98473F
:207B40000136F2E7507D0008507D0008507D0008547D0008024B0146186800F063B800BFDF
:207B60002C000020024B0146186800F00BB800BF2C00002002440346934200D1704703F800
:207B8000011BF9E737B5002948D051F8043C0190002BA1F10404B8BFE41800F0ADF8204A6B
:207BA00001981368154633B96360146003B0BDE8304000F0A7B8A3420BD92168621893427B
:207BC00004BF1A685B68636004BF521822602C60ECE71A465B680BB1A342FAD9116855184F
:207BE000A5420BD1246821445418A3421160DDD11C685B68536021441160D7E702D90C23C9
:207C00000360D3E7256861198B4204BF19685B68636004BF491921605460C7E703B030BD01
:207C2000B4000020F8B5CD1C25F0030508350C2D38BF0C25002D064601DBA94203D90C23D4
:207C400033600020F8BD00F057F821490A6814469CB9204F3B6823B92146304600F03CF803
:207C600038602946304600F037F8431C23D10C233360304600F046F8E3E723685B1B17D4F9
:207C80000B2B03D923601C44256004E06368A2420CBF0B605360304600F034F804F10B005C
:207CA000231D20F00700C21ACCD01B1AA350C9E722466468CCE7C41C24F00304A042E3D0A6
:207CC000211A304600F008F80130DDD1CFE700BFB4000020B800002038B5064D0023044656
:207CE00008462B60F8F7FAFF431C02D12B6803B1236038BDD8080020014800F009B800BF19
:207D0000E0080020014800F004B800BFE008002070477047F8B500BFF8BC08BC9E467047B2
:207D2000F8B500BFF8BC08BC9E4670474344430000000000000000000102030406070809D2
:207D40000000000001020304C084FF7F01000000BD010008990100080024F40010000000C6
:207D6000010000002C7D00080200000009570008B5590008675A0008A55A0008D15B0008CD
:207D8000000000003000002000000000000000000000000000000000000000000000000093
:207DA0000000000000000000000000000000000000000000000000000000000000000000C3
:207DC0000000000000000000000000000000000000000000000000000000000000000000A3
:207DE0000000000000000000FFFFFFFFFFFFFFFFFFFFFFFFFFFFFFFFFFFFFFFFFFFFFFFF9B
:207E0000FFFFFFFFFFFFFFFFFFFFFFFFFFFFFFFFFFFFFFFFFFFFFFFFFFFFFFFFFFFFFFFF82
:207E2000FFFFFFFFFFFFFFFFFFFFFFFFFFFFFFFFFFFFFFFFFFFFFFFFFFFFFFFFFFFFFFFF62
:047E4000FFFFFFFF42
:00000001FF
