:020000040800F2
:100000000020002009020008BF010008BF0100080D
:10001000BF010008BF010008BF0100080000000088
:10002000000000000000000000000000BF01000808
:10003000BF01000800000000BF010008BF01000868
:100040004848016851F48031016001688903FCD59A
:100050004548016851F0805101604448016851F4FD
:10006000404101604248016851F0010101600168AE
:100070004907FCD570473F48016851F0080101600D
:100080003D48016851F080710160016851F0806164
:100090000160016851F080510160016851F08041B8
:1000A000016000203549086000203549086070472C
:1000B0002D48016851F0010101607FF001003149D4
:1000C000086041F63F703049086000202F49086001
:1000D0005FF08040016851F0010101602C48016827
:1000E00051F0010101602B480168C907FBD50021CF
:1000F00001607047254900220A600A688242FCD3E9
:10010000704710B5FFF79CFFFFF7B5FFFFF7D0FF73
:100110004FF47A70FFF7EEFF1F4C206850F48050C8
:100120002060206850F400502060206850F4804027
:100130002060206850F4004020604FF47A70FFF790
:10014000D9FF206830F480502060206830F40050DF
:100150002060206830F480402060206830F4004047
:100160002060D5E70038024040380240007000406F
:100170000838024030380240000C0240040C0240B3
:10018000080C02402C0000402800004024000040E1
:100190001400004010000040140C02404EF688513C
:1001A000CEF20001086840F470000860BFF34F8F82
:1001B000BFF36F8F4FF00170E1EE100A7047FEE75A
:1001C00000F00DF8002801D0AFF30080AFF30080FD
:1001D0000020AFF30080FFF794FF00F002F8012049
:1001E000704700F001B800000746384600F002F8FA
:1001F000FBE7000080B5AFF30080024A1100182031
:10020000ABBEFBE7260002000548014603B4684682
:1002100080F30988AFF30080FFF7C0FFFFF7D0FF3E
:04022000A5EDF5FE55
:0400000508000209E4
:00000001FF
