:020000040800F2
:10000000002000204D030008E7010008E701000878
:10001000E7010008E7010008E70100080000000010
:10002000000000000000000000000000E7010008E0
:10003000E701000800000000E7010008E7010008F0
:100040003F48016851F4003101603E48016851F0B9
:10005000010101603C48016851F020010160016824
:1000600051F0800101603948016851F030010160B0
:10007000016851F0C00101603548016851F4E06148
:100080000160016851F4E0410160324800210160E3
:10009000016851F400510160016831F48051016040
:1000A0002D490A6832F440520A602C490A6852F419
:1000B00050720A600A6852F001020A60016851F049
:1000C00008010160016851F00401016070470100FE
:1000D000C9B2234A1160234909684906FBD5704714
:1000E000204800688006FBD51D480068C0B27047F4
:1000F0003EB568461C49052200F03AF800F091F838
:1001000000F072F800F0A8F8FFF79AFFFFF7E8FF99
:100110000400164D286850F4805028604FF47A701F
:1001200000F0BCF8601CC0B2FFF7D1FF286830F4C3
:10013000805028604FF47A7000F0B0F8E6E70000D5
:1001400040380240303802400000024008000240BF
:10015000200002400C44004010440040084400408D
:10016000044400400044004068030008140C0240AE
:1001700062B38B0708D0521E11F8013B00F8013B17
:1001800000F024808B07F6D1830740F0208000BF69
:10019000103A07D330B4B1E83810103AA0E838105C
:1001A000F9D230BC530724BFB1E80810A0E808100A
:1001B00044BF51F8043B40F8043BD20724BF31F858
:1001C000022B20F8022B44BF0B7803707047083ACB
:1001D00007D3B1E80810083A40F8043B40F804CBD4
:1001E000F7D25307E4E7FEE73048016851F0080111
:1001F00001602F48016851F080710160016851F081
:1002000080610160016851F080510160016851F026
:1002100080410160002027490860002026490860CD
:1002200070472648016851F48031016001688903F4
:10023000FCD52348016851F08051016021480168D4
:1002400051F4404101602048016851F00101016012
:1002500001684907FCD570471948016851F0010150
:1002600001607FF001001949086041F63F701849AC
:1002700008600020174908605FF08040016851F075
:10028000010101601448016851F001010160134847
:100290000168C907FBD50021016070470D490022A4
:1002A0000A600A688242FCD370470000303802407E
:1002B000000C0240040C0240080C024000380240CE
:1002C0004038024000700040083802402C000040D6
:1002D00028000040240000401400004010000040AE
:1002E0004EF68851CEF20001086840F470000860B4
:1002F000BFF34F8FBFF36F8F4FF00170E1EE100A25
:100300007047000000F00DF8002801D0AFF3008026
:10031000AFF300800020AFF30080FFF7E9FE00F0AC
:1003200002F80120704700F001B800000746384687
:1003300000F002F8FBE7000080B5AFF30080024A4E
:1003400011001820ABBEFBE726000200054801465D
:1003500003B4684680F30988AFF30080FFF7C0FF5D
:10036000FFF7D0FFA5EDF5FE6162636400000000B9
:040000050800034D9F
:00000001FF
