:020000040800F2
:100000000020002001050008930400089304000864
:100010009304000893040008930400080000000003
:100020000000000000000000000000009304000831
:1000300093040008000000009304000893040008E3
:100040009B48016851F4805101609A48016851F061
:1000500003010160016851F004010160016851F081
:1000600010010160016831F080010160016851F404
:1000700040710160016831F480610160016831F410
:100080000061016000208C4908608C49086850F0CC
:10009000010008608A48026852F49522026089488B
:1000A000026842F4402252F47C420260864A13689D
:1000B000864803431360086850F0100008608448C5
:1000C000016851F0400101608248016851F08001EF
:1000D000016070477748016851F040010160704746
:1000E00010B4002207E07C4B1B689B07FBD5835CA8
:1000F0007A4C2360521C8A42F5DB774801688907F5
:10010000FBD501680906FCD474490968006810BC75
:10011000704771490A689207FBD5704AC0B21060F7
:1001200008688007FCD508680006FCD410680968D8
:10013000C0B2704710B56A4C216831F008012160E7
:10014000C0B2FFF7E6FF0020FFF7E3FF216851F0A0
:1001500008012160C0B210BD6248016851F400314D
:1001600001605648016851F001010160544801687E
:1001700051F020010160016851F080010160514897
:10018000016851F030010160016851F0C001016067
:100190004D48016851F4E0610160016851F4E041AB
:1001A0000160514800210160016851F40051016073
:1001B000016831F4805101604C490A6832F44052C0
:1001C0000A604B490A6852F450720A600A6852F099
:1001D00001020A60016851F008010160016851F0F4
:1001E000040101607047C0B242490860424800689B
:1001F0004006FBD5704718B591B001A83F490A6881
:10020000026005A83E4991E81C0080E81C000EA889
:100210003C4991E81C0080E81C000A22002102A849
:1002200000F074F80A2200210BA800F06FF808A86B
:10023000354991E81C0080E81C00684600F08DF804
:1002400000F06EF800F0A4F8FFF786FFFFF7F8FE65
:10025000FFF740FF224C206830F0080020600A20A1
:1002600000F0B7F8022105A8FFF73AFF0A2000F0D6
:10027000B0F8206850F0080020600A2000F0A9F8CB
:10028000A020FFF757FF8DF808000A2000F0A1F822
:100290009DF80800FFF7A7FF9DF80900FFF7A3FFEF
:1002A000FA20FFF7A0FF4FF47A7000F0B3F8E4E70C
:1002B00044380240003001400430014030380240F0
:1002C000000002400800024020000240000050559B
:1002D0000010024008100240083001400C3001407C
:1002E00014100240403802400C44004010440040CA
:1002F0000844004004440040004400404005000819
:100300001C050008280500083405000810B504463F
:1003100010460A460146204600F088F8204610BDE7
:100320002F48016851F0080101602E48016851F022
:1003300080710160016851F080610160016851F0D5
:1003400080510160016851F0804101600020264920
:10035000086000202549086070472548016851F46D
:100360008031016001688903FCD52248016851F0A1
:10037000805101602048016851F4404101601F48EC
:10038000016851F00101016001684907FCD570471F
:100390001848016851F0010101607FF0010018491F
:1003A00008600720174908600020174908605FF0BF
:1003B0008040016851F0010101601448016851F06A
:1003C0000101016012480168C907FBD500210160E5
:1003D00070470D4900220A600A688242FCD37047C8
:1003E00030380240000C0240040C0240080C02406D
:1003F0000038024040380240007000400838024097
:100400002C00004028000040240000401400004060
:100410001000004010B5040003E04FF47A70FFF7BD
:10042000D8FF2000441E0028F7D110BD62F30F2230
:1004300062F31F42401810F0030308D0C91A1FD3FB
:10044000DB0748BF00F8012D28BF20F8022D13005C
:1004500030B414461546103928BF20E93C00FAD8BC
:10046000490728BF20E90C0048BF40F8042D890047
:1004700028BF20F8022D48BF00F8012D30BC70477E
:10048000C91818BF00F8012DCB0728BF00F8012DAF
:100490007047FEE74EF68851CEF20001086840F43E
:1004A00070000860BFF34F8FBFF36F8F4FF0017084
:1004B000E1EE100A7047000000F00DF8002801D0AE
:1004C000AFF30080AFF300800020AFF30080FFF7B0
:1004D00092FE00F002F80120704700F001B8000021
:1004E0000746384600F002F8FBE7000080B5AFF39E
:1004F0000080024A11001820ABBEFBE72600020074
:100500000548014603B4684680F30988AFF30080CC
:10051000FFF7C0FFFFF7D0FFA5EDF5FE200F0000AD
:100520000000000000000000233000000000000078
:1005300000000000A000000000000000000000001B
:040540008F00000028
:0400000508000501E9
:00000001FF
